{
  "contractName": "SecretNote",
  "abi": [
    {
      "constant": false,
      "inputs": [
        {
          "name": "a",
          "type": "uint256[2]"
        },
        {
          "name": "a_p",
          "type": "uint256[2]"
        },
        {
          "name": "b",
          "type": "uint256[2][2]"
        },
        {
          "name": "b_p",
          "type": "uint256[2]"
        },
        {
          "name": "c",
          "type": "uint256[2]"
        },
        {
          "name": "c_p",
          "type": "uint256[2]"
        },
        {
          "name": "h",
          "type": "uint256[2]"
        },
        {
          "name": "k",
          "type": "uint256[2]"
        },
        {
          "name": "input",
          "type": "uint256[7]"
        }
      ],
      "name": "verifyTx",
      "outputs": [
        {
          "name": "r",
          "type": "bool"
        }
      ],
      "payable": false,
      "stateMutability": "nonpayable",
      "type": "function",
      "signature": "0x1cdf1357"
    },
    {
      "constant": true,
      "inputs": [
        {
          "name": "",
          "type": "bytes32"
        }
      ],
      "name": "notes",
      "outputs": [
        {
          "name": "",
          "type": "uint8"
        }
      ],
      "payable": false,
      "stateMutability": "view",
      "type": "function",
      "signature": "0x85de26b7"
    },
    {
      "constant": true,
      "inputs": [
        {
          "name": "",
          "type": "uint256"
        }
      ],
      "name": "allNotes",
      "outputs": [
        {
          "name": "",
          "type": "string"
        }
      ],
      "payable": false,
      "stateMutability": "view",
      "type": "function",
      "signature": "0xddabcf41"
    },
    {
      "inputs": [],
      "payable": false,
      "stateMutability": "nonpayable",
      "type": "constructor",
      "signature": "constructor"
    },
    {
      "anonymous": false,
      "inputs": [
        {
          "indexed": false,
          "name": "noteId",
          "type": "bytes32"
        },
        {
          "indexed": false,
          "name": "index",
          "type": "uint256"
        }
      ],
      "name": "NoteCreated",
      "type": "event",
      "signature": "0xc904a92388c152c0c63dfe30e3e880273673ef7d33ea18195aecb5ba50f546fc"
    },
    {
      "anonymous": false,
      "inputs": [
        {
          "indexed": false,
          "name": "s",
          "type": "string"
        }
      ],
      "name": "Verified",
      "type": "event",
      "signature": "0x3f3cfdb26fb5f9f1786ab4f1a1f9cd4c0b5e726cbdfc26e495261731aad44e39"
    },
    {
      "constant": true,
      "inputs": [],
      "name": "getNotesLength",
      "outputs": [
        {
          "name": "",
          "type": "uint256"
        }
      ],
      "payable": false,
      "stateMutability": "view",
      "type": "function",
      "signature": "0xeb3d72d1"
    },
    {
      "constant": false,
      "inputs": [
        {
          "name": "amount",
          "type": "uint256"
        },
        {
          "name": "encryptedNote",
          "type": "string"
        }
      ],
      "name": "createNoteDummy",
      "outputs": [],
      "payable": false,
      "stateMutability": "nonpayable",
      "type": "function",
      "signature": "0x5fbd861c"
    },
    {
      "constant": false,
      "inputs": [
        {
          "name": "a",
          "type": "uint256[2]"
        },
        {
          "name": "a_p",
          "type": "uint256[2]"
        },
        {
          "name": "b",
          "type": "uint256[2][2]"
        },
        {
          "name": "b_p",
          "type": "uint256[2]"
        },
        {
          "name": "c",
          "type": "uint256[2]"
        },
        {
          "name": "c_p",
          "type": "uint256[2]"
        },
        {
          "name": "h",
          "type": "uint256[2]"
        },
        {
          "name": "k",
          "type": "uint256[2]"
        },
        {
          "name": "input",
          "type": "uint256[7]"
        },
        {
          "name": "encryptedNote1",
          "type": "string"
        },
        {
          "name": "encryptedNote2",
          "type": "string"
        }
      ],
      "name": "transferNote",
      "outputs": [],
      "payable": false,
      "stateMutability": "nonpayable",
      "type": "function",
      "signature": "0x573d7339"
    }
  ],
  "bytecode": "0x608060405234801561001057600080fd5b5061261d806100206000396000f300608060405260043610610078576000357c0100000000000000000000000000000000000000000000000000000000900463ffffffff1680631cdf13571461007d578063573d7339146102975780635fbd861c1461052557806385de26b714610598578063ddabcf41146105eb578063eb3d72d114610691575b600080fd5b34801561008957600080fd5b5061027d600480360381019080806040019060028060200260405190810160405280929190826002602002808284378201915050505050919291929080604001906002806020026040519081016040528092919082600260200280828437820191505050505091929192908060800190600280602002604051908101604052809291906000905b82821015610152578382604002016002806020026040519081016040528092919082600260200280828437820191505050505081526020019060010190610110565b505050509192919290806040019060028060200260405190810160405280929190826002602002808284378201915050505050919291929080604001906002806020026040519081016040528092919082600260200280828437820191505050505091929192908060400190600280602002604051908101604052809291908260026020028082843782019150505050509192919290806040019060028060200260405190810160405280929190826002602002808284378201915050505050919291929080604001906002806020026040519081016040528092919082600260200280828437820191505050505091929192908060e001906007806020026040519081016040528092919082600760200280828437820191505050505091929192905050506106bc565b604051808215151515815260200191505060405180910390f35b3480156102a357600080fd5b50610523600480360381019080806040019060028060200260405190810160405280929190826002602002808284378201915050505050919291929080604001906002806020026040519081016040528092919082600260200280828437820191505050505091929192908060800190600280602002604051908101604052809291906000905b8282101561036c57838260400201600280602002604051908101604052809291908260026020028082843782019150505050508152602001906001019061032a565b505050509192919290806040019060028060200260405190810160405280929190826002602002808284378201915050505050919291929080604001906002806020026040519081016040528092919082600260200280828437820191505050505091929192908060400190600280602002604051908101604052809291908260026020028082843782019150505050509192919290806040019060028060200260405190810160405280929190826002602002808284378201915050505050919291929080604001906002806020026040519081016040528092919082600260200280828437820191505050505091929192908060e00190600780602002604051908101604052809291908260076020028082843782019150505050509192919290803590602001908201803590602001908080601f0160208091040260200160405190810160405280939291908181526020018383808284378201915050505050509192919290803590602001908201803590602001908080601f0160208091040260200160405190810160405280939291908181526020018383808284378201915050505050509192919290505050610ab7565b005b34801561053157600080fd5b5061059660048036038101908080359060200190929190803590602001908201803590602001908080601f0160208091040260200160405190810160405280939291908181526020018383808284378201915050505050509192919290505050610c47565b005b3480156105a457600080fd5b506105c76004803603810190808035600019169060200190929190505050610ce3565b604051808260028111156105d757fe5b60ff16815260200191505060405180910390f35b3480156105f757600080fd5b5061061660048036038101908080359060200190929190505050610d03565b6040518080602001828103825283818151815260200191508051906020019080838360005b8381101561065657808201518184015260208101905061063b565b50505050905090810190601f1680156106835780820380516001836020036101000a031916815260200191505b509250505060405180910390f35b34801561069d57600080fd5b506106a6610dbe565b6040518082815260200191505060405180910390f35b60006106c6612359565b6060600060408051908101604052808e60006002811015156106e457fe5b602002015181526020018e60016002811015156106fd57fe5b6020020151815250836000018190525060408051908101604052808d600060028110151561072757fe5b602002015181526020018d600160028110151561074057fe5b60200201518152508360200181905250604080519081016040528060408051908101604052808e600060028110151561077557fe5b6020020151600060028110151561078857fe5b602002015181526020018e60006002811015156107a157fe5b602002015160016002811015156107b457fe5b6020020151815250815260200160408051908101604052808e60016002811015156107db57fe5b602002015160006002811015156107ee57fe5b602002015181526020018e600160028110151561080757fe5b6020020151600160028110151561081a57fe5b6020020151815250815250836040018190525060408051908101604052808b600060028110151561084757fe5b602002015181526020018b600160028110151561086057fe5b6020020151815250836060018190525060408051908101604052808a600060028110151561088a57fe5b602002015181526020018a60016002811015156108a357fe5b6020020151815250836080018190525060408051908101604052808960006002811015156108cd57fe5b602002015181526020018960016002811015156108e657fe5b60200201518152508360a00181905250604080519081016040528088600060028110151561091057fe5b6020020151815260200188600160028110151561092957fe5b60200201518152508360e00181905250604080519081016040528087600060028110151561095357fe5b6020020151815260200187600160028110151561096c57fe5b60200201518152508360c0018190525060076040519080825280602002602001820160405280156109ac5781602001602082028038833980820191505090505b509150600090505b60078110156109f95784816007811015156109cb57fe5b602002015182828151811015156109de57fe5b906020019060200201818152505080806001019150506109b4565b6000610a058385610dcb565b1415610aa2577f3f3cfdb26fb5f9f1786ab4f1a1f9cd4c0b5e726cbdfc26e495261731aad44e396040518080602001828103825260228152602001807f5472616e73616374696f6e207375636365737366756c6c79207665726966696581526020017f642e00000000000000000000000000000000000000000000000000000000000081525060400191505060405180910390a160019350610aa7565b600093505b5050509998505050505050505050565b6000806000610acd8e8e8e8e8e8e8e8e8e6106bc565b1515610b41576040517f08c379a00000000000000000000000000000000000000000000000000000000081526004018080602001828103825260108152602001807f496e76616c6964207a6b2070726f6f660000000000000000000000000000000081525060200191505060405180910390fd5b610b71866000600781101515610b5357fe5b6020020151876001600781101515610b6757fe5b6020020151611002565b925060016002811115610b8057fe5b600080856000191660001916815260200190815260200160002060009054906101000a900460ff166002811115610bb357fe5b141515610bbf57600080fd5b610bef866002600781101515610bd157fe5b6020020151876003600781101515610be557fe5b6020020151611002565b9150610bfb8286611181565b610c2b866004600781101515610c0d57fe5b6020020151876005600781101515610c2157fe5b6020020151611002565b9050610c378185611181565b5050505050505050505050505050565b600060023373ffffffffffffffffffffffffffffffffffffffff16600102846001026040518083600019166000191681526020018260001916600019168152602001925050506020604051808303816000865af1158015610cac573d6000803e3d6000fd5b5050506040513d6020811015610cc157600080fd5b81019080805190602001909291905050509050610cde8183611181565b505050565b60006020528060005260406000206000915054906101000a900460ff1681565b600181815481101515610d1257fe5b906000526020600020016000915090508054600181600116156101000203166002900480601f016020809104026020016040519081016040528092919081815260200182805460018160011615610100020316600290048015610db65780601f10610d8b57610100808354040283529160200191610db6565b820191906000526020600020905b815481529060010190602001808311610d9957829003601f168201915b505050505081565b6000600180549050905090565b6000610dd56123cf565b610ddd61243f565b6000610de761124e565b92508260e00151516001875101141515610e0057600080fd5b60408051908101604052806000815260200160008152509150600090505b8551811015610e7e57610e6f82610e6a8560e0015160018501815181101515610e4357fe5b906020019060200201518985815181101515610e5b57fe5b90602001906020020151611ad8565b611b74565b91508080600101915050610e1e565b610ea4828460e001516000815181101515610e9557fe5b90602001906020020151611b74565b9150610ecd85600001518460000151610ec08860200151611c31565b610ec8611ccc565b611d96565b1515610edc5760019350610ff9565b610f0383602001518660400151610ef68860600151611c31565b610efe611ccc565b611d96565b1515610f125760029350610ff9565b610f3985608001518460400151610f2c8860a00151611c31565b610f34611ccc565b611d96565b1515610f485760039350610ff9565b610f948560c001518460600151610f78610f7386610f6e8b600001518c60800151611b74565b611b74565b611c31565b8660a00151610f8a8860800151611c31565b8a60400151611ea1565b1515610fa35760049350610ff9565b610fe5610fb4838760000151611b74565b8660400151610fc68860e00151611c31565b8660c00151610fd88a60800151611c31565b610fe0611ccc565b611ea1565b1515610ff45760059350610ff9565b600093505b50505092915050565b600080600060606000867001000000000000000000000000000000000293508570010000000000000000000000000000000002925060206040519080825280601f01601f19166020018201604052801561106b5781602001602082028038833980820191505090505b509150600090505b601081101561116a57838160108110151561108a57fe5b1a7f01000000000000000000000000000000000000000000000000000000000000000282828151811015156110bb57fe5b9060200101907effffffffffffffffffffffffffffffffffffffffffffffffffffffffffffff1916908160001a90535082816010811015156110f957fe5b1a7f010000000000000000000000000000000000000000000000000000000000000002828260100181518110151561112d57fe5b9060200101907effffffffffffffffffffffffffffffffffffffffffffffffffffffffffffff1916908160001a9053508080600101915050611073565b611175826000611fe8565b94505050505092915050565b6001600080846000191660001916815260200190815260200160002060006101000a81548160ff021916908360028111156111b857fe5b021790555060018190806001815401808255809150509060018203906000526020600020016000909192909190915090805190602001906111fa929190612459565b50507fc904a92388c152c0c63dfe30e3e880273673ef7d33ea18195aecb5ba50f546fc8260018080549050036040518083600019166000191681526020018281526020019250505060405180910390a15050565b6112566123cf565b604080519081016040528060408051908101604052807f08e36b4d2756b53f5251e82d8165221316ec067c2481efe2958a113ddfa4281b81526020017f23b9b66fe61679968d3cccad8002a3c5b0ce28d3e59a612d160359ebf6786ac8815250815260200160408051908101604052807f1831b14d3f751e661527f361796804e319ba91fa785b34975ec48b7dfc82331481526020017f198886847d5eaa0095b97694d30043a053c1be9222e0911522a6cb3900b5ceef815250815250816000018190525060408051908101604052807f0152297defbbf76d445a6673296626f69e4a97037d829b2e3c8019e5684497dc81526020017f1a5ef8fda8fc033dd1b773e2d942c7e9a999bbfc97bef1fccf551a9fbe316d3d8152508160200181905250604080519081016040528060408051908101604052807f0ce6e53f3d81e50846a16091601d50f9e78273866e3f2400235b0c95f041929681526020017f1b216d69cc445244cdba42bb530247d7445697e742a7146150ac19063e8b1e66815250815260200160408051908101604052807f020cb68030dc78b586b865708911a5a09ffb1bb31cc4a5341e8d2dd2aaf5f2aa81526020017f1626a5c67b2efead53b3615d4024b6a5e594036981533837180b01918e6fb2fe8152508152508160400181905250604080519081016040528060408051908101604052807f2c7b8befbe852f5602cb35735b768b6c4801da043a478cb46c2e2ee97d3ed47a81526020017f099bfa50a654da1d2f59b0663f51e971df97fc8df6170d21da0a9b75f47c2549815250815260200160408051908101604052807f2a7ce5949d8a8d930a9c30acc27c024d6e98fcb60fb3cf76a938aed6c8fbf61481526020017f142a4aac09b5a1e99414efd27ae28ec96266e2dc0aebd66058df6ff99f6e2646815250815250816060018190525060408051908101604052807f26f78d04e26268f44ae9b2d8dc17d9dcd4e339c984bb4c4778e40672b5a7b5c481526020017f190ccaa145ea56450f806cb032336523c4b45fd0abe1c737701b4e127db12c278152508160800181905250604080519081016040528060408051908101604052807f11e3c125e138d67e45383854aafadcf2c0827ad7e90560fdf692db58667fa19e81526020017f257488754ff3e39dd598a02c50c20075cf94d7f79bd47ba7b37d21d5a7d6d73f815250815260200160408051908101604052807f1264446b710d5384100d2fff1c9dc496325d1f84080cf936196817751c0da1a381526020017f0cc57f9b481f081c08e332635e8fe2a18b413c684a5d3b041ec3d7344bd874c28152508152508160a00181905250604080519081016040528060408051908101604052807f2734bbf6688cfe7dc264e4f88552222c4adf4cb780e104faf759b776aac21d0a81526020017f28231ec8a3ffd9bfd9495d169bd5d70dbcf5554c5558f6b3b198a5c91b0d3446815250815260200160408051908101604052807f099dad14a00ac1051226a0d78261f1e464cfc9391b9b236b1530d193e78fbb0e81526020017f2aac94ff631724caaf729d95db664ef73a73d3809739f20f4a706c50b68df5b68152508152508160c00181905250600860405190808252806020026020018201604052801561172457816020015b6117116124d9565b8152602001906001900390816117095790505b508160e0018190525060408051908101604052807f13750d82f2b679dc4ad0867253f43d1bced36ee91887c9744ecab4aba5c45ee881526020017f0a53bf95dab12022bdc37dbb02438d6c8ff39d1f04cef77ca30877d0adb16d9c8152508160e00151600081518110151561179557fe5b9060200190602002018190525060408051908101604052807f0fe2c88bd239ea004343693f3586abe22d54b6ac45fce69ce978bca2935125ec81526020017f2e67e52e92276387ad316fb3863692ee82844f4f895813989652a1d2a2b876bf8152508160e00151600181518110151561180a57fe5b9060200190602002018190525060408051908101604052807f0be019e86beed55a9fdefb65db20b03e77b390b7c31fdf6aa77737d67ca5688581526020017f03fe056d28fd35961ca54de24f155df26ddf73bb0f091eba28b027d9ab11e74a8152508160e00151600281518110151561187f57fe5b9060200190602002018190525060408051908101604052807f2d4cdf32b6926410525b4689ec7fc1f4a1fb9a3f8339607b35bbcc12ea6516e981526020017f0ed0aca4a3fc40de2f2ae6e794cfd6ad1e92de77150cc4bc14d6e8ef2e00a57a8152508160e0015160038151811015156118f457fe5b9060200190602002018190525060408051908101604052807f22c725caba5c03935a5ba390182457dd689d079fd705f0cf8469a5c2071a7a2e81526020017f0cc1b06ad8a59d601fcdf38277fa25e93125f602d52a28981c0025f934a4a6328152508160e00151600481518110151561196957fe5b9060200190602002018190525060408051908101604052807f07b238b7431cdf1adb2b366b7640515c2cedea3a64670ad706a902643b1c0fcb81526020017f21f8d6c2802190c0442bd9f76711412d99fc35a928e7c85e64b827177d8d46c58152508160e0015160058151811015156119de57fe5b9060200190602002018190525060408051908101604052807f15ac63102415044a2aefa516e1f57835e913f0e8a30a2b8ce0ccd9c97a2171d181526020017f0add7bed91dbd33baf21e7b9b4fd59ca50dcea3125cddba44aed4af98151912d8152508160e001516006815181101515611a5357fe5b9060200190602002018190525060408051908101604052807f194f37d7035364240daa6a75921638b40dc77a708c58b08c7e96546d078ce38981526020017f16c391945a99cf1c2df6700e12cd119d96dc2329d8d079cb5f95635ab9ee87de8152508160e001516007815181101515611ac857fe5b9060200190602002018190525090565b611ae061243f565b611ae86124f3565b60008460000151826000600381101515611afe57fe5b6020020181815250508460200151826001600381101515611b1b57fe5b60200201818152505083826002600381101515611b3457fe5b602002018181525050606083608084600060076107d05a03f190508060008114611b5d57611b5f565bfe5b50801515611b6c57600080fd5b505092915050565b611b7c61243f565b611b84612516565b60008460000151826000600481101515611b9a57fe5b6020020181815250508460200151826001600481101515611bb757fe5b6020020181815250508360000151826002600481101515611bd457fe5b6020020181815250508360200151826003600481101515611bf157fe5b60200201818152505060608360c084600060066107d05a03f190508060008114611c1a57611c1c565bfe5b50801515611c2957600080fd5b505092915050565b611c3961243f565b60007f30644e72e131a029b85045b68181585d97816a916871ca8d3c208c16d87cfd47905060008360000151148015611c76575060008360200151145b15611c995760408051908101604052806000815260200160008152509150611cc6565b604080519081016040528084600001518152602001828560200151811515611cbd57fe5b06830381525091505b50919050565b611cd4612539565b604080519081016040528060408051908101604052807f198e9393920d483a7260bfb731fb5d25f1aa493335a9e71297e485b7aef312c281526020017f1800deef121f1e76426a00665e5c4479674322d4f75edadd46debd5cd992f6ed815250815260200160408051908101604052807f090689d0585ff075ec9e99ad690c3395bc4b313370b38ef355acdadcd122975b81526020017f12c85ea5db8c6deb4aab71808dcb408fe3d1e7690c43d37b4ce6cc0166fa7daa815250815250905090565b60006060806002604051908082528060200260200182016040528015611dd657816020015b611dc36124d9565b815260200190600190039081611dbb5790505b5091506002604051908082528060200260200182016040528015611e1457816020015b611e01612560565b815260200190600190039081611df95790505b50905086826000815181101515611e2757fe5b9060200190602002018190525084826001815181101515611e4457fe5b9060200190602002018190525085816000815181101515611e6157fe5b9060200190602002018190525083816001815181101515611e7e57fe5b90602001906020020181905250611e9582826120c6565b92505050949350505050565b60006060806003604051908082528060200260200182016040528015611ee157816020015b611ece6124d9565b815260200190600190039081611ec65790505b5091506003604051908082528060200260200182016040528015611f1f57816020015b611f0c612560565b815260200190600190039081611f045790505b50905088826000815181101515611f3257fe5b9060200190602002018190525086826001815181101515611f4f57fe5b9060200190602002018190525084826002815181101515611f6c57fe5b9060200190602002018190525087816000815181101515611f8957fe5b9060200190602002018190525085816001815181101515611fa657fe5b9060200190602002018190525083816002815181101515611fc357fe5b90602001906020020181905250611fda82826120c6565b925050509695505050505050565b60008060008090505b60208110156120bb576008810260ff7f0100000000000000000000000000000000000000000000000000000000000000028683870181518110151561203257fe5b9060200101517f010000000000000000000000000000000000000000000000000000000000000090047f010000000000000000000000000000000000000000000000000000000000000002167effffffffffffffffffffffffffffffffffffffffffffffffffffffffffffff1916600019169060020a9004821791508080600101915050611ff1565b819250505092915050565b6000806000606060006120d7612587565b6000875189511415156120e957600080fd5b88519550600686029450846040519080825280602002602001820160405280156121225781602001602082028038833980820191505090505b509350600092505b858310156122ff57888381518110151561214057fe5b9060200190602002015160000151846000600686020181518110151561216257fe5b9060200190602002018181525050888381518110151561217e57fe5b906020019060200201516020015184600160068602018151811015156121a057fe5b906020019060200201818152505087838151811015156121bc57fe5b906020019060200201516000015160006002811015156121d857fe5b602002015184600260068602018151811015156121f157fe5b9060200190602002018181525050878381518110151561220d57fe5b9060200190602002015160000151600160028110151561222957fe5b6020020151846003600686020181518110151561224257fe5b9060200190602002018181525050878381518110151561225e57fe5b9060200190602002015160200151600060028110151561227a57fe5b6020020151846004600686020181518110151561229357fe5b906020019060200201818152505087838151811015156122af57fe5b906020019060200201516020015160016002811015156122cb57fe5b602002015184600560068602018151811015156122e457fe5b9060200190602002018181525050828060010193505061212a565b6020826020870260208701600060086107d05a03f19050806000811461232457612326565bfe5b5080151561233357600080fd5b600082600060018110151561234457fe5b60200201511415965050505050505092915050565b6102406040519081016040528061236e6124d9565b815260200161237b6124d9565b8152602001612388612560565b81526020016123956124d9565b81526020016123a26124d9565b81526020016123af6124d9565b81526020016123bc6124d9565b81526020016123c96124d9565b81525090565b610320604051908101604052806123e4612560565b81526020016123f16124d9565b81526020016123fe612560565b815260200161240b612560565b81526020016124186124d9565b8152602001612425612560565b8152602001612432612560565b8152602001606081525090565b604080519081016040528060008152602001600081525090565b828054600181600116156101000203166002900490600052602060002090601f016020900481019282601f1061249a57805160ff19168380011785556124c8565b828001600101855582156124c8579182015b828111156124c75782518255916020019190600101906124ac565b5b5090506124d591906125aa565b5090565b604080519081016040528060008152602001600081525090565b606060405190810160405280600390602082028038833980820191505090505090565b608060405190810160405280600490602082028038833980820191505090505090565b60806040519081016040528061254d6125cf565b815260200161255a6125cf565b81525090565b6080604051908101604052806125746125cf565b81526020016125816125cf565b81525090565b602060405190810160405280600190602082028038833980820191505090505090565b6125cc91905b808211156125c85760008160009055506001016125b0565b5090565b90565b60408051908101604052806002906020820280388339808201915050905050905600a165627a7a72305820331699302e3d116987c45acc7ce867d26f62dd4430370ed6a93b66bc31baefd20029",
  "source": "pragma solidity ^0.4.25;\n\n// import \"./kyber/ERC20Interface.sol\";\n// import \"./kyber/KyberNetworkProxy.sol\";\nimport \"./verifier.sol\";\n\ncontract SecretNote is Verifier {\n\n  // ERC20 internal DAI_TOKEN_ADDRESS = ERC20(0x00eeeeeeeeeeeeeeeeeeeeeeeeeeeeeeeeeeeeeeee);\n  // ERC20 DAI_TOKEN_ADDRESS;\n  // KyberNetworkProxy kyberProxy;\n\n  // constructor(address _kyberNetworkProxy, address daiTokenAddress) {\n  //   // DAI_TOKEN_ADDRESS = ERC20(daiTokenAddress);\n  //   // kyberProxy = KyberNetworkProxy(_kyberNetworkProxy);\n  // }\n\n  constructor() {}\n\n  enum State {Invalid, Created, Spent}\n  mapping(bytes32 => State) public notes; // mapping of hash of the note to state\n  string[] public allNotes;\n\n  function getNotesLength() public view returns(uint) {\n    return allNotes.length;\n  }\n\n  // function createNote(ERC20 srcToken, uint srcQty) public {\n  //   // Check that the token transferFrom has succeeded\n  //   require(srcToken.transferFrom(msg.sender, address(this), srcQty));\n\n  //   // swap srcToken tokens with dai\n  //   uint swappedAmount = kyberSwap(srcToken, srcQty);\n\n  //   // create secret note @todo nonce\n  //   bytes32 noteHash = sha256(bytes32(msg.sender), bytes32(swappedAmount));\n  //   notes[noteHash] = State.Created;\n  //   allNotes.push(noteHash);\n  //   emit NoteCreated(noteHash);\n  // }\n\n  // function kyberSwap(ERC20 srcToken, uint srcQty) internal returns(uint) {\n  //   // Get the minimum conversion rate\n  //   uint minConversionRate;\n  //   (minConversionRate,) = kyberProxy.getExpectedRate(srcToken, DAI_TOKEN_ADDRESS, srcQty);\n\n  //   kyberProxy.trade(\n  //     srcToken,\n  //     srcQty,\n  //     DAI_TOKEN_ADDRESS, // dest,\n  //     address(this), // destAddress address to send tokens to\n  //     1000000000, // maxDestAmount??\n  //     minConversionRate, // check\n  //     0\n  //   );\n\n  //   return srcQty * minConversionRate;\n  // }\n\n  function createNoteDummy(uint amount, string encryptedNote) public {\n    bytes32 note = sha256(bytes32(msg.sender), bytes32(amount));\n    createNote(note, encryptedNote);\n  }\n\n  function transferNote(\n    uint[2] a,\n    uint[2] a_p,\n    uint[2][2] b,\n    uint[2] b_p,\n    uint[2] c,\n    uint[2] c_p,\n    uint[2] h,\n    uint[2] k,\n    uint[7] input,\n    string encryptedNote1,\n    string encryptedNote2\n  ) {\n    require(\n      verifyTx(a, a_p, b, b_p, c, c_p, h, k, input),\n      'Invalid zk proof'\n    );\n\n    bytes32 spendingNote = calcNoteHash(input[0], input[1]);\n    require(notes[spendingNote] == State.Created);\n\n    bytes32 newNote1 = calcNoteHash(input[2], input[3]);\n    createNote(newNote1, encryptedNote1);\n    bytes32 newNote2 = calcNoteHash(input[4], input[5]);\n    createNote(newNote2, encryptedNote2);\n  }\n\n  event NoteCreated(bytes32 noteId, uint index);\n  function createNote(bytes32 note, string encryptedNote) internal {\n    notes[note] = State.Created;\n    allNotes.push(encryptedNote);\n    emit NoteCreated(note, allNotes.length - 1);\n  }\n\n  function calcNoteHash(uint _a, uint _b) internal pure returns(bytes32 note) {\n    bytes16 a = bytes16(_a);\n    bytes16 b = bytes16(_b);\n    bytes memory _note = new bytes(32);\n    \n    for (uint i = 0; i < 16; i++) {\n      _note[i] = a[i];\n      _note[16 + i] = b[i];\n    }\n    note = bytesToBytes32(_note, 0);\n  }\n\n  function bytesToBytes32(bytes b, uint offset) internal pure returns (bytes32) {\n    bytes32 out;\n    for (uint i = 0; i < 32; i++) {\n      out |= bytes32(b[offset + i] & 0xFF) >> (i * 8);\n    }\n    return out;\n  }\n}",
  "sourcePath": "/Users/arpit/projects/ethsingapore-zk-dai/ethereum/contracts/SecretNote.sol",
  "compiler": {
    "name": "solc",
    "version": "0.4.25+commit.59dbf8f1.Emscripten.clang"
  },
  "schemaVersion": "3.0.0-beta.1",
  "updatedAt": "2018-12-08T10:11:07.945Z"
}