{
  "contractName": "SecretNote",
  "abi": [
    {
      "constant": false,
      "inputs": [
        {
          "name": "a",
          "type": "uint256[2]"
        },
        {
          "name": "a_p",
          "type": "uint256[2]"
        },
        {
          "name": "b",
          "type": "uint256[2][2]"
        },
        {
          "name": "b_p",
          "type": "uint256[2]"
        },
        {
          "name": "c",
          "type": "uint256[2]"
        },
        {
          "name": "c_p",
          "type": "uint256[2]"
        },
        {
          "name": "h",
          "type": "uint256[2]"
        },
        {
          "name": "k",
          "type": "uint256[2]"
        },
        {
          "name": "input",
          "type": "uint256[7]"
        }
      ],
      "name": "verifyTx",
      "outputs": [
        {
          "name": "r",
          "type": "bool"
        }
      ],
      "payable": false,
      "stateMutability": "nonpayable",
      "type": "function",
      "signature": "0x1cdf1357"
    },
    {
      "constant": true,
      "inputs": [
        {
          "name": "",
          "type": "uint256"
        }
      ],
      "name": "allHashedNotes",
      "outputs": [
        {
          "name": "",
          "type": "bytes32"
        }
      ],
      "payable": false,
      "stateMutability": "view",
      "type": "function",
      "signature": "0x58a5d596"
    },
    {
      "constant": true,
      "inputs": [
        {
          "name": "",
          "type": "bytes32"
        }
      ],
      "name": "notes",
      "outputs": [
        {
          "name": "",
          "type": "uint8"
        }
      ],
      "payable": false,
      "stateMutability": "view",
      "type": "function",
      "signature": "0x85de26b7"
    },
    {
      "constant": true,
      "inputs": [
        {
          "name": "",
          "type": "uint256"
        }
      ],
      "name": "allNotes",
      "outputs": [
        {
          "name": "",
          "type": "string"
        }
      ],
      "payable": false,
      "stateMutability": "view",
      "type": "function",
      "signature": "0xddabcf41"
    },
    {
      "inputs": [],
      "payable": false,
      "stateMutability": "nonpayable",
      "type": "constructor",
      "signature": "constructor"
    },
    {
      "anonymous": false,
      "inputs": [
        {
          "indexed": false,
          "name": "m",
          "type": "bytes32"
        },
        {
          "indexed": false,
          "name": "m2",
          "type": "bytes32"
        }
      ],
      "name": "debug",
      "type": "event",
      "signature": "0x02451fae0adb7ceff4e670c0e623b1c9e0b2898e612e291ad76e596de0a2d053"
    },
    {
      "anonymous": false,
      "inputs": [
        {
          "indexed": false,
          "name": "noteId",
          "type": "bytes32"
        },
        {
          "indexed": false,
          "name": "index",
          "type": "uint256"
        }
      ],
      "name": "NoteCreated",
      "type": "event",
      "signature": "0xc904a92388c152c0c63dfe30e3e880273673ef7d33ea18195aecb5ba50f546fc"
    },
    {
      "anonymous": false,
      "inputs": [
        {
          "indexed": false,
          "name": "a",
          "type": "bytes16"
        },
        {
          "indexed": false,
          "name": "b",
          "type": "bytes16"
        }
      ],
      "name": "d2",
      "type": "event",
      "signature": "0xd278e8c3a630dc4a7eb08180a3880316949e0f4b449df0b97df01512353786ce"
    },
    {
      "anonymous": false,
      "inputs": [
        {
          "indexed": false,
          "name": "s",
          "type": "string"
        }
      ],
      "name": "Verified",
      "type": "event",
      "signature": "0x3f3cfdb26fb5f9f1786ab4f1a1f9cd4c0b5e726cbdfc26e495261731aad44e39"
    },
    {
      "constant": true,
      "inputs": [],
      "name": "getNotesLength",
      "outputs": [
        {
          "name": "",
          "type": "uint256"
        }
      ],
      "payable": false,
      "stateMutability": "view",
      "type": "function",
      "signature": "0xeb3d72d1"
    },
    {
      "constant": false,
      "inputs": [
        {
          "name": "amount",
          "type": "uint256"
        },
        {
          "name": "encryptedNote",
          "type": "string"
        }
      ],
      "name": "createNoteDummy",
      "outputs": [],
      "payable": false,
      "stateMutability": "nonpayable",
      "type": "function",
      "signature": "0x5fbd861c"
    },
    {
      "constant": false,
      "inputs": [
        {
          "name": "a",
          "type": "uint256[2]"
        },
        {
          "name": "a_p",
          "type": "uint256[2]"
        },
        {
          "name": "b",
          "type": "uint256[2][2]"
        },
        {
          "name": "b_p",
          "type": "uint256[2]"
        },
        {
          "name": "c",
          "type": "uint256[2]"
        },
        {
          "name": "c_p",
          "type": "uint256[2]"
        },
        {
          "name": "h",
          "type": "uint256[2]"
        },
        {
          "name": "k",
          "type": "uint256[2]"
        },
        {
          "name": "input",
          "type": "uint256[7]"
        },
        {
          "name": "encryptedNote1",
          "type": "string"
        },
        {
          "name": "encryptedNote2",
          "type": "string"
        }
      ],
      "name": "transferNote",
      "outputs": [],
      "payable": false,
      "stateMutability": "nonpayable",
      "type": "function",
      "signature": "0x573d7339"
    }
  ],
  "bytecode": "0x608060405234801561001057600080fd5b506127d6806100206000396000f300608060405260043610610083576000357c0100000000000000000000000000000000000000000000000000000000900463ffffffff1680631cdf135714610088578063573d7339146102a257806358a5d596146105305780635fbd861c1461057957806385de26b7146105ec578063ddabcf411461063f578063eb3d72d1146106e5575b600080fd5b34801561009457600080fd5b50610288600480360381019080806040019060028060200260405190810160405280929190826002602002808284378201915050505050919291929080604001906002806020026040519081016040528092919082600260200280828437820191505050505091929192908060800190600280602002604051908101604052809291906000905b8282101561015d57838260400201600280602002604051908101604052809291908260026020028082843782019150505050508152602001906001019061011b565b505050509192919290806040019060028060200260405190810160405280929190826002602002808284378201915050505050919291929080604001906002806020026040519081016040528092919082600260200280828437820191505050505091929192908060400190600280602002604051908101604052809291908260026020028082843782019150505050509192919290806040019060028060200260405190810160405280929190826002602002808284378201915050505050919291929080604001906002806020026040519081016040528092919082600260200280828437820191505050505091929192908060e00190600780602002604051908101604052809291908260076020028082843782019150505050509192919290505050610710565b604051808215151515815260200191505060405180910390f35b3480156102ae57600080fd5b5061052e600480360381019080806040019060028060200260405190810160405280929190826002602002808284378201915050505050919291929080604001906002806020026040519081016040528092919082600260200280828437820191505050505091929192908060800190600280602002604051908101604052809291906000905b82821015610377578382604002016002806020026040519081016040528092919082600260200280828437820191505050505081526020019060010190610335565b505050509192919290806040019060028060200260405190810160405280929190826002602002808284378201915050505050919291929080604001906002806020026040519081016040528092919082600260200280828437820191505050505091929192908060400190600280602002604051908101604052809291908260026020028082843782019150505050509192919290806040019060028060200260405190810160405280929190826002602002808284378201915050505050919291929080604001906002806020026040519081016040528092919082600260200280828437820191505050505091929192908060e00190600780602002604051908101604052809291908260076020028082843782019150505050509192919290803590602001908201803590602001908080601f0160208091040260200160405190810160405280939291908181526020018383808284378201915050505050509192919290803590602001908201803590602001908080601f0160208091040260200160405190810160405280939291908181526020018383808284378201915050505050509192919290505050610b0b565b005b34801561053c57600080fd5b5061055b60048036038101908080359060200190929190505050610d40565b60405180826000191660001916815260200191505060405180910390f35b34801561058557600080fd5b506105ea60048036038101908080359060200190929190803590602001908201803590602001908080601f0160208091040260200160405190810160405280939291908181526020018383808284378201915050505050509192919290505050610d63565b005b3480156105f857600080fd5b5061061b6004803603810190808035600019169060200190929190505050610e6a565b6040518082600281111561062b57fe5b60ff16815260200191505060405180910390f35b34801561064b57600080fd5b5061066a60048036038101908080359060200190929190505050610e8a565b6040518080602001828103825283818151815260200191508051906020019080838360005b838110156106aa57808201518184015260208101905061068f565b50505050905090810190601f1680156106d75780820380516001836020036101000a031916815260200191505b509250505060405180910390f35b3480156106f157600080fd5b506106fa610f45565b6040518082815260200191505060405180910390f35b600061071a612512565b6060600060408051908101604052808e600060028110151561073857fe5b602002015181526020018e600160028110151561075157fe5b6020020151815250836000018190525060408051908101604052808d600060028110151561077b57fe5b602002015181526020018d600160028110151561079457fe5b60200201518152508360200181905250604080519081016040528060408051908101604052808e60006002811015156107c957fe5b602002015160006002811015156107dc57fe5b602002015181526020018e60006002811015156107f557fe5b6020020151600160028110151561080857fe5b6020020151815250815260200160408051908101604052808e600160028110151561082f57fe5b6020020151600060028110151561084257fe5b602002015181526020018e600160028110151561085b57fe5b6020020151600160028110151561086e57fe5b6020020151815250815250836040018190525060408051908101604052808b600060028110151561089b57fe5b602002015181526020018b60016002811015156108b457fe5b6020020151815250836060018190525060408051908101604052808a60006002811015156108de57fe5b602002015181526020018a60016002811015156108f757fe5b60200201518152508360800181905250604080519081016040528089600060028110151561092157fe5b6020020151815260200189600160028110151561093a57fe5b60200201518152508360a00181905250604080519081016040528088600060028110151561096457fe5b6020020151815260200188600160028110151561097d57fe5b60200201518152508360e0018190525060408051908101604052808760006002811015156109a757fe5b602002015181526020018760016002811015156109c057fe5b60200201518152508360c001819052506007604051908082528060200260200182016040528015610a005781602001602082028038833980820191505090505b509150600090505b6007811015610a4d578481600781101515610a1f57fe5b60200201518282815181101515610a3257fe5b90602001906020020181815250508080600101915050610a08565b6000610a598385610f52565b1415610af6577f3f3cfdb26fb5f9f1786ab4f1a1f9cd4c0b5e726cbdfc26e495261731aad44e396040518080602001828103825260228152602001807f5472616e73616374696f6e207375636365737366756c6c79207665726966696581526020017f642e00000000000000000000000000000000000000000000000000000000000081525060400191505060405180910390a160019350610afb565b600093505b5050509998505050505050505050565b6000806000610b218e8e8e8e8e8e8e8e8e610710565b1515610b95576040517f08c379a00000000000000000000000000000000000000000000000000000000081526004018080602001828103825260108152602001807f496e76616c6964207a6b2070726f6f660000000000000000000000000000000081525060200191505060405180910390fd5b610bc5866000600781101515610ba757fe5b6020020151876001600781101515610bbb57fe5b6020020151611189565b925060016002811115610bd457fe5b600080856000191660001916815260200190815260200160002060009054906101000a900460ff166002811115610c0757fe5b141515610c7c576040517f08c379a00000000000000000000000000000000000000000000000000000000081526004018080602001828103825260198152602001807f7370656e64696e674e6f746520646f65736e742065786973740000000000000081525060200191505060405180910390fd5b6002600080856000191660001916815260200190815260200160002060006101000a81548160ff02191690836002811115610cb357fe5b0217905550610ce8866002600781101515610cca57fe5b6020020151876003600781101515610cde57fe5b6020020151611189565b9150610cf48286611308565b610d24866004600781101515610d0657fe5b6020020151876005600781101515610d1a57fe5b6020020151611189565b9050610d308185611308565b5050505050505050505050505050565b600281815481101515610d4f57fe5b906000526020600020016000915090505481565b600060023373ffffffffffffffffffffffffffffffffffffffff16600102846001026040518083600019166000191681526020018260001916600019168152602001925050506020604051808303816000865af1158015610dc8573d6000803e3d6000fd5b5050506040513d6020811015610ddd57600080fd5b81019080805190602001909291905050509050610dfa8183611308565b7f02451fae0adb7ceff4e670c0e623b1c9e0b2898e612e291ad76e596de0a2d0533373ffffffffffffffffffffffffffffffffffffffff166001028460010260405180836000191660001916815260200182600019166000191681526020019250505060405180910390a1505050565b60006020528060005260406000206000915054906101000a900460ff1681565b600181815481101515610e9957fe5b906000526020600020016000915090508054600181600116156101000203166002900480601f016020809104026020016040519081016040528092919081815260200182805460018160011615610100020316600290048015610f3d5780601f10610f1257610100808354040283529160200191610f3d565b820191906000526020600020905b815481529060010190602001808311610f2057829003601f168201915b505050505081565b6000600180549050905090565b6000610f5c612588565b610f646125f8565b6000610f6e611407565b92508260e00151516001875101141515610f8757600080fd5b60408051908101604052806000815260200160008152509150600090505b855181101561100557610ff682610ff18560e0015160018501815181101515610fca57fe5b906020019060200201518985815181101515610fe257fe5b90602001906020020151611c91565b611d2d565b91508080600101915050610fa5565b61102b828460e00151600081518110151561101c57fe5b90602001906020020151611d2d565b9150611054856000015184600001516110478860200151611dea565b61104f611e85565b611f4f565b15156110635760019350611180565b61108a8360200151866040015161107d8860600151611dea565b611085611e85565b611f4f565b15156110995760029350611180565b6110c0856080015184604001516110b38860a00151611dea565b6110bb611e85565b611f4f565b15156110cf5760039350611180565b61111b8560c0015184606001516110ff6110fa866110f58b600001518c60800151611d2d565b611d2d565b611dea565b8660a001516111118860800151611dea565b8a6040015161205a565b151561112a5760049350611180565b61116c61113b838760000151611d2d565b866040015161114d8860e00151611dea565b8660c0015161115f8a60800151611dea565b611167611e85565b61205a565b151561117b5760059350611180565b600093505b50505092915050565b600080600060606000867001000000000000000000000000000000000293508570010000000000000000000000000000000002925060206040519080825280601f01601f1916602001820160405280156111f25781602001602082028038833980820191505090505b509150600090505b60108110156112f157838160108110151561121157fe5b1a7f010000000000000000000000000000000000000000000000000000000000000002828281518110151561124257fe5b9060200101907effffffffffffffffffffffffffffffffffffffffffffffffffffffffffffff1916908160001a905350828160108110151561128057fe5b1a7f01000000000000000000000000000000000000000000000000000000000000000282826010018151811015156112b457fe5b9060200101907effffffffffffffffffffffffffffffffffffffffffffffffffffffffffffff1916908160001a90535080806001019150506111fa565b6112fc8260006121a1565b94505050505092915050565b6001600080846000191660001916815260200190815260200160002060006101000a81548160ff0219169083600281111561133f57fe5b02179055506001819080600181540180825580915050906001820390600052602060002001600090919290919091509080519060200190611381929190612612565b505060028290806001815401808255809150509060018203906000526020600020016000909192909190915090600019169055507fc904a92388c152c0c63dfe30e3e880273673ef7d33ea18195aecb5ba50f546fc8260018080549050036040518083600019166000191681526020018281526020019250505060405180910390a15050565b61140f612588565b604080519081016040528060408051908101604052807f1aab9b1beb2979c81ab5e28e1df1f54bacc1ff141691f7e1faea1e0eb019203b81526020017f0c47c9839a64648c8e0ab2c5fc764802dfd93e73044a783637d438bd3749b7f8815250815260200160408051908101604052807f0817492efe863a2d81e6074f061073355d0ecaad05c540e599a4b335989ed71e81526020017f2e0bdc1cdee689e06af41ee24582fdbb0d51fa6d2804311f7ac69177f60d3b19815250815250816000018190525060408051908101604052807f0131d6b726837a4693f9fa23806bdb41ed9053e276c78e7fd8b07c83a6ed966c81526020017f10efbc6c60aae6a668acb2470cb64fce9514b530e6dea630b3aac7060ae1ad718152508160200181905250604080519081016040528060408051908101604052807f1c5529a6a65418842e3459b40df8a3852534516fe851dd7572803e6b996268b281526020017f2ea3004ce7e81816deb46f55966e1862b787577e939f9ff3f8b012b2de852009815250815260200160408051908101604052807f0db798c428e01c7159f7c2dd5e7dbc5b6384d52dd1bd01af2e65bdb66ffdfa3a81526020017f200f7f57f56c03dc57964a650c5eca47788584dbd72717d771747be488ea8f088152508152508160400181905250604080519081016040528060408051908101604052807f134b2b0fb7c58ee2370e46b76e0385e9667ac39cbcbf3146d995237fa9d0fd6c81526020017f2012be6d72e64f3b8623467c760dea03259cdfd255941ccdfd2d0b34ff92e4de815250815260200160408051908101604052807f09c3b35ba1692ec89ab01fcafb621fc8c49678218a92c1c8ff3235d1d8d0595b81526020017f29850e07ac583321415ac0206b30db94691ec57895d48a271ea0c0be1542cf0f815250815250816060018190525060408051908101604052807f2c31c43611f358b0e46d10f1fef9c993111d2294f45bc344e97d0c0a2b57614381526020017f2679cb65290a6ddd073f0880f6e228c7a6476e3d2f2af62fc0ee1a4c545bebe88152508160800181905250604080519081016040528060408051908101604052807f0f68e5e40a457c2e781288ce813e1e48d492b1eed4e5e1a0a18211d97437c7d781526020017f06548d2e52b540b5b9d81d82a42d9b49a986b5f809e68bde25da44fc0dc06003815250815260200160408051908101604052807f033f25ea10bd93fa007f8924ce9dd4479a796c0e9fdb3984b413f48807285ed381526020017f29086279321f3a0f5361c1930c0555300c42ed022ff2466ff07d636a9264bb0d8152508152508160a00181905250604080519081016040528060408051908101604052807f23ba440ce57974e621ae7279557b264ee8a9958a5603f91b55d84e53be820caa81526020017f12778365c31a51a54041f40b36277573fc829323d47664247caef11a8b79b0be815250815260200160408051908101604052807f1f015835d1257c2acb5b1b7f2761d16aa1a773e206550f32dfe68da5daae4ffa81526020017f11494aa152e410e7d30d4a6dba87fada33959af71ea907cc9982d3548b5caa868152508152508160c0018190525060086040519080825280602002602001820160405280156118dd57816020015b6118ca612692565b8152602001906001900390816118c25790505b508160e0018190525060408051908101604052807f1503df973be27beeb944cd7b674ae7ce8fa24268225d2f41c885142db8bdcd9e81526020017f1143391037014a7c0740072d20f430514ed0bf562e166b007303965a94d72b1e8152508160e00151600081518110151561194e57fe5b9060200190602002018190525060408051908101604052807f2bcb781395da60a8c91a1aa1ee7a0117ec275f158db9afe7821d90498bc4246881526020017f2b84aec7a91f59fd673fefe67f7dfb33f6dab54fe7333a05a45c620d795d3df78152508160e0015160018151811015156119c357fe5b9060200190602002018190525060408051908101604052807f225b0e444de41b52f6f63317d23283050a9a1a1c2c5def5a5aca9dce79ac1fb381526020017f269077658ed0ddf20f5d477816d403db6a96b31716c94119df7b1be9a7b98b078152508160e001516002815181101515611a3857fe5b9060200190602002018190525060408051908101604052807f1fe4bc51f972b890f9bc3d17a60921c155aac05bcedcdc101dab2efe66eeb76f81526020017f2564f7e60e38228d835d101313fdb43104ff3d22987c77e018a5af757b161c948152508160e001516003815181101515611aad57fe5b9060200190602002018190525060408051908101604052807f034b03c502f27b0e92ec7620af82b653622433564d4e2ce8002fd79f0c6296fc81526020017f0229fa2676ae8c8e565ccccc0cd9a0c124f24663c7f10bc6e631af13fcb95d798152508160e001516004815181101515611b2257fe5b9060200190602002018190525060408051908101604052807f0d9d8ee5ae41e6265d1fa1e9a6df4a2501022e1d768bff4a88708806c18420ce81526020017f2349f56466f3564e46c4a0944b63d11e81c067e4d9c6c59fd855997b173f33678152508160e001516005815181101515611b9757fe5b9060200190602002018190525060408051908101604052807f0ba59676635b1e4b79ea7be544dcdbee96610b9a6a30fa52fd6a07177b4ac4d581526020017f0a0c301ddc0e66349f22a859af89685060f9879f7d06abcfd4561e330c5df6258152508160e001516006815181101515611c0c57fe5b9060200190602002018190525060408051908101604052807f25c91fd88f058d02d2cbe4c923ac9166e2d2072d94afd6b1549cc2d7a97c015d81526020017f2736740d0e249ab5e401d43fb63737378e349a02b6fd0b9efab6ec3420b212028152508160e001516007815181101515611c8157fe5b9060200190602002018190525090565b611c996125f8565b611ca16126ac565b60008460000151826000600381101515611cb757fe5b6020020181815250508460200151826001600381101515611cd457fe5b60200201818152505083826002600381101515611ced57fe5b602002018181525050606083608084600060076107d05a03f190508060008114611d1657611d18565bfe5b50801515611d2557600080fd5b505092915050565b611d356125f8565b611d3d6126cf565b60008460000151826000600481101515611d5357fe5b6020020181815250508460200151826001600481101515611d7057fe5b6020020181815250508360000151826002600481101515611d8d57fe5b6020020181815250508360200151826003600481101515611daa57fe5b60200201818152505060608360c084600060066107d05a03f190508060008114611dd357611dd5565bfe5b50801515611de257600080fd5b505092915050565b611df26125f8565b60007f30644e72e131a029b85045b68181585d97816a916871ca8d3c208c16d87cfd47905060008360000151148015611e2f575060008360200151145b15611e525760408051908101604052806000815260200160008152509150611e7f565b604080519081016040528084600001518152602001828560200151811515611e7657fe5b06830381525091505b50919050565b611e8d6126f2565b604080519081016040528060408051908101604052807f198e9393920d483a7260bfb731fb5d25f1aa493335a9e71297e485b7aef312c281526020017f1800deef121f1e76426a00665e5c4479674322d4f75edadd46debd5cd992f6ed815250815260200160408051908101604052807f090689d0585ff075ec9e99ad690c3395bc4b313370b38ef355acdadcd122975b81526020017f12c85ea5db8c6deb4aab71808dcb408fe3d1e7690c43d37b4ce6cc0166fa7daa815250815250905090565b60006060806002604051908082528060200260200182016040528015611f8f57816020015b611f7c612692565b815260200190600190039081611f745790505b5091506002604051908082528060200260200182016040528015611fcd57816020015b611fba612719565b815260200190600190039081611fb25790505b50905086826000815181101515611fe057fe5b9060200190602002018190525084826001815181101515611ffd57fe5b906020019060200201819052508581600081518110151561201a57fe5b906020019060200201819052508381600181518110151561203757fe5b9060200190602002018190525061204e828261227f565b92505050949350505050565b6000606080600360405190808252806020026020018201604052801561209a57816020015b612087612692565b81526020019060019003908161207f5790505b50915060036040519080825280602002602001820160405280156120d857816020015b6120c5612719565b8152602001906001900390816120bd5790505b509050888260008151811015156120eb57fe5b906020019060200201819052508682600181518110151561210857fe5b906020019060200201819052508482600281518110151561212557fe5b906020019060200201819052508781600081518110151561214257fe5b906020019060200201819052508581600181518110151561215f57fe5b906020019060200201819052508381600281518110151561217c57fe5b90602001906020020181905250612193828261227f565b925050509695505050505050565b60008060008090505b6020811015612274576008810260ff7f010000000000000000000000000000000000000000000000000000000000000002868387018151811015156121eb57fe5b9060200101517f010000000000000000000000000000000000000000000000000000000000000090047f010000000000000000000000000000000000000000000000000000000000000002167effffffffffffffffffffffffffffffffffffffffffffffffffffffffffffff1916600019169060020a90048217915080806001019150506121aa565b819250505092915050565b600080600060606000612290612740565b6000875189511415156122a257600080fd5b88519550600686029450846040519080825280602002602001820160405280156122db5781602001602082028038833980820191505090505b509350600092505b858310156124b85788838151811015156122f957fe5b9060200190602002015160000151846000600686020181518110151561231b57fe5b9060200190602002018181525050888381518110151561233757fe5b9060200190602002015160200151846001600686020181518110151561235957fe5b9060200190602002018181525050878381518110151561237557fe5b9060200190602002015160000151600060028110151561239157fe5b602002015184600260068602018151811015156123aa57fe5b906020019060200201818152505087838151811015156123c657fe5b906020019060200201516000015160016002811015156123e257fe5b602002015184600360068602018151811015156123fb57fe5b9060200190602002018181525050878381518110151561241757fe5b9060200190602002015160200151600060028110151561243357fe5b6020020151846004600686020181518110151561244c57fe5b9060200190602002018181525050878381518110151561246857fe5b9060200190602002015160200151600160028110151561248457fe5b6020020151846005600686020181518110151561249d57fe5b906020019060200201818152505082806001019350506122e3565b6020826020870260208701600060086107d05a03f1905080600081146124dd576124df565bfe5b508015156124ec57600080fd5b60008260006001811015156124fd57fe5b60200201511415965050505050505092915050565b61024060405190810160405280612527612692565b8152602001612534612692565b8152602001612541612719565b815260200161254e612692565b815260200161255b612692565b8152602001612568612692565b8152602001612575612692565b8152602001612582612692565b81525090565b6103206040519081016040528061259d612719565b81526020016125aa612692565b81526020016125b7612719565b81526020016125c4612719565b81526020016125d1612692565b81526020016125de612719565b81526020016125eb612719565b8152602001606081525090565b604080519081016040528060008152602001600081525090565b828054600181600116156101000203166002900490600052602060002090601f016020900481019282601f1061265357805160ff1916838001178555612681565b82800160010185558215612681579182015b82811115612680578251825591602001919060010190612665565b5b50905061268e9190612763565b5090565b604080519081016040528060008152602001600081525090565b606060405190810160405280600390602082028038833980820191505090505090565b608060405190810160405280600490602082028038833980820191505090505090565b608060405190810160405280612706612788565b8152602001612713612788565b81525090565b60806040519081016040528061272d612788565b815260200161273a612788565b81525090565b602060405190810160405280600190602082028038833980820191505090505090565b61278591905b80821115612781576000816000905550600101612769565b5090565b90565b60408051908101604052806002906020820280388339808201915050905050905600a165627a7a7230582036343f6b04292e37d12ace234ad1b6160cff2f13c309242b85d8d2184075dc390029",
  "source": "pragma solidity ^0.4.25;\n\n// import \"./kyber/ERC20Interface.sol\";\n// import \"./kyber/KyberNetworkProxy.sol\";\nimport \"./verifier.sol\";\n\ncontract SecretNote is Verifier {\n\n  // ERC20 internal DAI_TOKEN_ADDRESS = ERC20(0x00eeeeeeeeeeeeeeeeeeeeeeeeeeeeeeeeeeeeeeee);\n  // ERC20 DAI_TOKEN_ADDRESS;\n  // KyberNetworkProxy kyberProxy;\n\n  // constructor(address _kyberNetworkProxy, address daiTokenAddress) {\n  //   // DAI_TOKEN_ADDRESS = ERC20(daiTokenAddress);\n  //   // kyberProxy = KyberNetworkProxy(_kyberNetworkProxy);\n  // }\n\n  constructor() {}\n\n  enum State {Invalid, Created, Spent}\n  mapping(bytes32 => State) public notes; // mapping of hash of the note to state\n  string[] public allNotes;\n  bytes32[] public allHashedNotes;\n\n  function getNotesLength() public view returns(uint) {\n    return allNotes.length;\n  }\n\n  // function createNote(ERC20 srcToken, uint srcQty) public {\n  //   // Check that the token transferFrom has succeeded\n  //   require(srcToken.transferFrom(msg.sender, address(this), srcQty));\n\n  //   // swap srcToken tokens with dai\n  //   uint swappedAmount = kyberSwap(srcToken, srcQty);\n\n  //   // create secret note @todo nonce\n  //   bytes32 noteHash = sha256(bytes32(msg.sender), bytes32(swappedAmount));\n  //   notes[noteHash] = State.Created;\n  //   allNotes.push(noteHash);\n  //   emit NoteCreated(noteHash);\n  // }\n\n  // function kyberSwap(ERC20 srcToken, uint srcQty) internal returns(uint) {\n  //   // Get the minimum conversion rate\n  //   uint minConversionRate;\n  //   (minConversionRate,) = kyberProxy.getExpectedRate(srcToken, DAI_TOKEN_ADDRESS, srcQty);\n\n  //   kyberProxy.trade(\n  //     srcToken,\n  //     srcQty,\n  //     DAI_TOKEN_ADDRESS, // dest,\n  //     address(this), // destAddress address to send tokens to\n  //     1000000000, // maxDestAmount??\n  //     minConversionRate, // check\n  //     0\n  //   );\n\n  //   return srcQty * minConversionRate;\n  // }\n\n  event debug(bytes32 m, bytes32 m2);\n  function createNoteDummy(uint amount, string encryptedNote) public {\n    bytes32 note = sha256(bytes32(msg.sender), bytes32(amount));\n    createNote(note, encryptedNote);\n    emit debug(bytes32(msg.sender), bytes32(amount));\n  }\n\n  function transferNote(\n    uint[2] a,\n    uint[2] a_p,\n    uint[2][2] b,\n    uint[2] b_p,\n    uint[2] c,\n    uint[2] c_p,\n    uint[2] h,\n    uint[2] k,\n    uint[7] input,\n    string encryptedNote1,\n    string encryptedNote2\n  ) {\n    require(\n      verifyTx(a, a_p, b, b_p, c, c_p, h, k, input),\n      'Invalid zk proof'\n    );\n\n    bytes32 spendingNote = calcNoteHash(input[0], input[1]);\n    // emit debug(spendingNote, bytes32(0));\n    require(\n      notes[spendingNote] == State.Created,\n      'spendingNote doesnt exist'\n    );\n\n    notes[spendingNote] = State.Spent;\n    bytes32 newNote1 = calcNoteHash(input[2], input[3]);\n    createNote(newNote1, encryptedNote1);\n    bytes32 newNote2 = calcNoteHash(input[4], input[5]);\n    createNote(newNote2, encryptedNote2);\n  }\n\n  event NoteCreated(bytes32 noteId, uint index);\n  function createNote(bytes32 note, string encryptedNote) internal {\n    notes[note] = State.Created;\n    allNotes.push(encryptedNote);\n    allHashedNotes.push(note);\n    emit NoteCreated(note, allNotes.length - 1);\n  }\n\n  event d2(bytes16 a, bytes16 b);\n  function calcNoteHash(uint _a, uint _b) internal returns(bytes32 note) {\n    bytes16 a = bytes16(_a);\n    bytes16 b = bytes16(_b);\n    // emit d2(a, b);\n    bytes memory _note = new bytes(32);\n    \n    for (uint i = 0; i < 16; i++) {\n      _note[i] = a[i];\n      _note[16 + i] = b[i];\n    }\n    note = bytesToBytes32(_note, 0);\n  }\n\n  function bytesToBytes32(bytes b, uint offset) internal pure returns (bytes32) {\n    bytes32 out;\n    for (uint i = 0; i < 32; i++) {\n      out |= bytes32(b[offset + i] & 0xFF) >> (i * 8);\n    }\n    return out;\n  }\n}",
  "sourcePath": "/Users/arpit/projects/ethsingapore-zk-dai/ethereum/contracts/SecretNote.sol",
  "compiler": {
    "name": "solc",
    "version": "0.4.25+commit.59dbf8f1.Emscripten.clang"
  },
  "schemaVersion": "3.0.0-beta.1",
  "updatedAt": "2018-12-08T16:14:19.429Z"
}