{
  "contractName": "SecretNote",
  "abi": [
    {
      "constant": false,
      "inputs": [
        {
          "name": "a",
          "type": "uint256[2]"
        },
        {
          "name": "a_p",
          "type": "uint256[2]"
        },
        {
          "name": "b",
          "type": "uint256[2][2]"
        },
        {
          "name": "b_p",
          "type": "uint256[2]"
        },
        {
          "name": "c",
          "type": "uint256[2]"
        },
        {
          "name": "c_p",
          "type": "uint256[2]"
        },
        {
          "name": "h",
          "type": "uint256[2]"
        },
        {
          "name": "k",
          "type": "uint256[2]"
        },
        {
          "name": "input",
          "type": "uint256[7]"
        }
      ],
      "name": "verifyTx",
      "outputs": [
        {
          "name": "r",
          "type": "bool"
        }
      ],
      "payable": false,
      "stateMutability": "nonpayable",
      "type": "function",
      "signature": "0x1cdf1357"
    },
    {
      "constant": true,
      "inputs": [
        {
          "name": "",
          "type": "uint256"
        }
      ],
      "name": "allHashedNotes",
      "outputs": [
        {
          "name": "",
          "type": "bytes32"
        }
      ],
      "payable": false,
      "stateMutability": "view",
      "type": "function",
      "signature": "0x58a5d596"
    },
    {
      "constant": true,
      "inputs": [
        {
          "name": "",
          "type": "bytes32"
        }
      ],
      "name": "notes",
      "outputs": [
        {
          "name": "",
          "type": "uint8"
        }
      ],
      "payable": false,
      "stateMutability": "view",
      "type": "function",
      "signature": "0x85de26b7"
    },
    {
      "constant": true,
      "inputs": [
        {
          "name": "",
          "type": "uint256"
        }
      ],
      "name": "allNotes",
      "outputs": [
        {
          "name": "",
          "type": "string"
        }
      ],
      "payable": false,
      "stateMutability": "view",
      "type": "function",
      "signature": "0xddabcf41"
    },
    {
      "inputs": [],
      "payable": false,
      "stateMutability": "nonpayable",
      "type": "constructor",
      "signature": "constructor"
    },
    {
      "anonymous": false,
      "inputs": [
        {
          "indexed": false,
          "name": "m",
          "type": "bytes32"
        },
        {
          "indexed": false,
          "name": "m2",
          "type": "bytes32"
        }
      ],
      "name": "debug",
      "type": "event",
      "signature": "0x02451fae0adb7ceff4e670c0e623b1c9e0b2898e612e291ad76e596de0a2d053"
    },
    {
      "anonymous": false,
      "inputs": [
        {
          "indexed": false,
          "name": "from",
          "type": "address"
        },
        {
          "indexed": false,
          "name": "to",
          "type": "address"
        },
        {
          "indexed": false,
          "name": "amount",
          "type": "uint256"
        }
      ],
      "name": "Claim",
      "type": "event",
      "signature": "0x70eb43c4a8ae8c40502dcf22436c509c28d6ff421cf07c491be56984bd987068"
    },
    {
      "anonymous": false,
      "inputs": [
        {
          "indexed": false,
          "name": "noteId",
          "type": "bytes32"
        },
        {
          "indexed": false,
          "name": "index",
          "type": "uint256"
        }
      ],
      "name": "NoteCreated",
      "type": "event",
      "signature": "0xc904a92388c152c0c63dfe30e3e880273673ef7d33ea18195aecb5ba50f546fc"
    },
    {
      "anonymous": false,
      "inputs": [
        {
          "indexed": false,
          "name": "a",
          "type": "bytes16"
        },
        {
          "indexed": false,
          "name": "b",
          "type": "bytes16"
        }
      ],
      "name": "d2",
      "type": "event",
      "signature": "0xd278e8c3a630dc4a7eb08180a3880316949e0f4b449df0b97df01512353786ce"
    },
    {
      "anonymous": false,
      "inputs": [
        {
          "indexed": false,
          "name": "s",
          "type": "string"
        }
      ],
      "name": "Verified",
      "type": "event",
      "signature": "0x3f3cfdb26fb5f9f1786ab4f1a1f9cd4c0b5e726cbdfc26e495261731aad44e39"
    },
    {
      "constant": true,
      "inputs": [],
      "name": "getNotesLength",
      "outputs": [
        {
          "name": "",
          "type": "uint256"
        }
      ],
      "payable": false,
      "stateMutability": "view",
      "type": "function",
      "signature": "0xeb3d72d1"
    },
    {
      "constant": false,
      "inputs": [
        {
          "name": "owner",
          "type": "address"
        },
        {
          "name": "amount",
          "type": "uint256"
        },
        {
          "name": "encryptedNote",
          "type": "string"
        }
      ],
      "name": "createNoteDummy",
      "outputs": [],
      "payable": false,
      "stateMutability": "nonpayable",
      "type": "function",
      "signature": "0xd9758ae0"
    },
    {
      "constant": false,
      "inputs": [
        {
          "name": "amount",
          "type": "uint256"
        }
      ],
      "name": "claimNote",
      "outputs": [],
      "payable": false,
      "stateMutability": "nonpayable",
      "type": "function",
      "signature": "0xa4654ead"
    },
    {
      "constant": false,
      "inputs": [
        {
          "name": "a",
          "type": "uint256[2]"
        },
        {
          "name": "a_p",
          "type": "uint256[2]"
        },
        {
          "name": "b",
          "type": "uint256[2][2]"
        },
        {
          "name": "b_p",
          "type": "uint256[2]"
        },
        {
          "name": "c",
          "type": "uint256[2]"
        },
        {
          "name": "c_p",
          "type": "uint256[2]"
        },
        {
          "name": "h",
          "type": "uint256[2]"
        },
        {
          "name": "k",
          "type": "uint256[2]"
        },
        {
          "name": "input",
          "type": "uint256[7]"
        },
        {
          "name": "encryptedNote1",
          "type": "string"
        },
        {
          "name": "encryptedNote2",
          "type": "string"
        }
      ],
      "name": "transferNote",
      "outputs": [],
      "payable": false,
      "stateMutability": "nonpayable",
      "type": "function",
      "signature": "0x573d7339"
    }
  ],
  "bytecode": "0x608060405273ad6d458402f60fd3bd25163575031acdce07538d6000806101000a81548173ffffffffffffffffffffffffffffffffffffffff021916908373ffffffffffffffffffffffffffffffffffffffff16021790555034801561006457600080fd5b50612c03806100746000396000f30060806040526004361061008e576000357c0100000000000000000000000000000000000000000000000000000000900463ffffffff1680631cdf135714610093578063573d7339146102ad57806358a5d5961461053b57806385de26b714610584578063a4654ead146105d7578063d9758ae014610604578063ddabcf4114610697578063eb3d72d11461073d575b600080fd5b34801561009f57600080fd5b50610293600480360381019080806040019060028060200260405190810160405280929190826002602002808284378201915050505050919291929080604001906002806020026040519081016040528092919082600260200280828437820191505050505091929192908060800190600280602002604051908101604052809291906000905b82821015610168578382604002016002806020026040519081016040528092919082600260200280828437820191505050505081526020019060010190610126565b505050509192919290806040019060028060200260405190810160405280929190826002602002808284378201915050505050919291929080604001906002806020026040519081016040528092919082600260200280828437820191505050505091929192908060400190600280602002604051908101604052809291908260026020028082843782019150505050509192919290806040019060028060200260405190810160405280929190826002602002808284378201915050505050919291929080604001906002806020026040519081016040528092919082600260200280828437820191505050505091929192908060e00190600780602002604051908101604052809291908260076020028082843782019150505050509192919290505050610768565b604051808215151515815260200191505060405180910390f35b3480156102b957600080fd5b50610539600480360381019080806040019060028060200260405190810160405280929190826002602002808284378201915050505050919291929080604001906002806020026040519081016040528092919082600260200280828437820191505050505091929192908060800190600280602002604051908101604052809291906000905b82821015610382578382604002016002806020026040519081016040528092919082600260200280828437820191505050505081526020019060010190610340565b505050509192919290806040019060028060200260405190810160405280929190826002602002808284378201915050505050919291929080604001906002806020026040519081016040528092919082600260200280828437820191505050505091929192908060400190600280602002604051908101604052809291908260026020028082843782019150505050509192919290806040019060028060200260405190810160405280929190826002602002808284378201915050505050919291929080604001906002806020026040519081016040528092919082600260200280828437820191505050505091929192908060e00190600780602002604051908101604052809291908260076020028082843782019150505050509192919290803590602001908201803590602001908080601f0160208091040260200160405190810160405280939291908181526020018383808284378201915050505050509192919290803590602001908201803590602001908080601f0160208091040260200160405190810160405280939291908181526020018383808284378201915050505050509192919290505050610b63565b005b34801561054757600080fd5b5061056660048036038101908080359060200190929190505050610d9a565b60405180826000191660001916815260200191505060405180910390f35b34801561059057600080fd5b506105b36004803603810190808035600019169060200190929190505050610dbd565b604051808260028111156105c357fe5b60ff16815260200191505060405180910390f35b3480156105e357600080fd5b5061060260048036038101908080359060200190929190505050610ddd565b005b34801561061057600080fd5b50610695600480360381019080803573ffffffffffffffffffffffffffffffffffffffff16906020019092919080359060200190929190803590602001908201803590602001908080601f01602080910402602001604051908101604052809392919081815260200183838082843782019150505050505091929192905050506111b1565b005b3480156106a357600080fd5b506106c2600480360381019080803590602001909291905050506112b9565b6040518080602001828103825283818151815260200191508051906020019080838360005b838110156107025780820151818401526020810190506106e7565b50505050905090810190601f16801561072f5780820380516001836020036101000a031916815260200191505b509250505060405180910390f35b34801561074957600080fd5b50610752611374565b6040518082815260200191505060405180910390f35b600061077261293f565b6060600060408051908101604052808e600060028110151561079057fe5b602002015181526020018e60016002811015156107a957fe5b6020020151815250836000018190525060408051908101604052808d60006002811015156107d357fe5b602002015181526020018d60016002811015156107ec57fe5b60200201518152508360200181905250604080519081016040528060408051908101604052808e600060028110151561082157fe5b6020020151600060028110151561083457fe5b602002015181526020018e600060028110151561084d57fe5b6020020151600160028110151561086057fe5b6020020151815250815260200160408051908101604052808e600160028110151561088757fe5b6020020151600060028110151561089a57fe5b602002015181526020018e60016002811015156108b357fe5b602002015160016002811015156108c657fe5b6020020151815250815250836040018190525060408051908101604052808b60006002811015156108f357fe5b602002015181526020018b600160028110151561090c57fe5b6020020151815250836060018190525060408051908101604052808a600060028110151561093657fe5b602002015181526020018a600160028110151561094f57fe5b60200201518152508360800181905250604080519081016040528089600060028110151561097957fe5b6020020151815260200189600160028110151561099257fe5b60200201518152508360a0018190525060408051908101604052808860006002811015156109bc57fe5b602002015181526020018860016002811015156109d557fe5b60200201518152508360e0018190525060408051908101604052808760006002811015156109ff57fe5b60200201518152602001876001600281101515610a1857fe5b60200201518152508360c001819052506007604051908082528060200260200182016040528015610a585781602001602082028038833980820191505090505b509150600090505b6007811015610aa5578481600781101515610a7757fe5b60200201518282815181101515610a8a57fe5b90602001906020020181815250508080600101915050610a60565b6000610ab18385611381565b1415610b4e577f3f3cfdb26fb5f9f1786ab4f1a1f9cd4c0b5e726cbdfc26e495261731aad44e396040518080602001828103825260228152602001807f5472616e73616374696f6e207375636365737366756c6c79207665726966696581526020017f642e00000000000000000000000000000000000000000000000000000000000081525060400191505060405180910390a160019350610b53565b600093505b5050509998505050505050505050565b6000806000610b798e8e8e8e8e8e8e8e8e610768565b1515610bed576040517f08c379a00000000000000000000000000000000000000000000000000000000081526004018080602001828103825260108152602001807f496e76616c6964207a6b2070726f6f660000000000000000000000000000000081525060200191505060405180910390fd5b610c1d866000600781101515610bff57fe5b6020020151876001600781101515610c1357fe5b60200201516115b8565b925060016002811115610c2c57fe5b60016000856000191660001916815260200190815260200160002060009054906101000a900460ff166002811115610c6057fe5b141515610cd5576040517f08c379a00000000000000000000000000000000000000000000000000000000081526004018080602001828103825260198152602001807f7370656e64696e674e6f746520646f65736e742065786973740000000000000081525060200191505060405180910390fd5b600260016000856000191660001916815260200190815260200160002060006101000a81548160ff02191690836002811115610d0d57fe5b0217905550610d42866002600781101515610d2457fe5b6020020151876003600781101515610d3857fe5b60200201516115b8565b9150610d4e8286611737565b610d7e866004600781101515610d6057fe5b6020020151876005600781101515610d7457fe5b60200201516115b8565b9050610d8a8185611737565b5050505050505050505050505050565b600381815481101515610da957fe5b906000526020600020016000915090505481565b60016020528060005260406000206000915054906101000a900460ff1681565b600060023373ffffffffffffffffffffffffffffffffffffffff16600102836001026040518083600019166000191681526020018260001916600019168152602001925050506020604051808303816000865af1158015610e42573d6000803e3d6000fd5b5050506040513d6020811015610e5757600080fd5b8101908080519060200190929190505050905060016002811115610e7757fe5b60016000836000191660001916815260200190815260200160002060009054906101000a900460ff166002811115610eab57fe5b141515610f20576040517f08c379a00000000000000000000000000000000000000000000000000000000081526004018080602001828103825260118152602001807f6e6f746520646f65736e7420657869737400000000000000000000000000000081525060200191505060405180910390fd5b600260016000836000191660001916815260200190815260200160002060006101000a81548160ff02191690836002811115610f5857fe5b02179055506000809054906101000a900473ffffffffffffffffffffffffffffffffffffffff1673ffffffffffffffffffffffffffffffffffffffff166323b872dd3033670de0b6b3a764000086026040518463ffffffff167c0100000000000000000000000000000000000000000000000000000000028152600401808473ffffffffffffffffffffffffffffffffffffffff1673ffffffffffffffffffffffffffffffffffffffff1681526020018373ffffffffffffffffffffffffffffffffffffffff1673ffffffffffffffffffffffffffffffffffffffff1681526020018281526020019350505050602060405180830381600087803b15801561105f57600080fd5b505af1158015611073573d6000803e3d6000fd5b505050506040513d602081101561108957600080fd5b8101908080519060200190929190505050151561110e576040517f08c379a00000000000000000000000000000000000000000000000000000000081526004018080602001828103825260188152602001807f646169546f6b656e207472616e73666572206661696c6564000000000000000081525060200191505060405180910390fd5b7f70eb43c4a8ae8c40502dcf22436c509c28d6ff421cf07c491be56984bd987068303384604051808473ffffffffffffffffffffffffffffffffffffffff1673ffffffffffffffffffffffffffffffffffffffff1681526020018373ffffffffffffffffffffffffffffffffffffffff1673ffffffffffffffffffffffffffffffffffffffff168152602001828152602001935050505060405180910390a15050565b600060028473ffffffffffffffffffffffffffffffffffffffff16600102846001026040518083600019166000191681526020018260001916600019168152602001925050506020604051808303816000865af1158015611216573d6000803e3d6000fd5b5050506040513d602081101561122b57600080fd5b810190808051906020019092919050505090506112488183611737565b7f02451fae0adb7ceff4e670c0e623b1c9e0b2898e612e291ad76e596de0a2d0533373ffffffffffffffffffffffffffffffffffffffff166001028460010260405180836000191660001916815260200182600019166000191681526020019250505060405180910390a150505050565b6002818154811015156112c857fe5b906000526020600020016000915090508054600181600116156101000203166002900480601f01602080910402602001604051908101604052809291908181526020018280546001816001161561010002031660029004801561136c5780601f106113415761010080835404028352916020019161136c565b820191906000526020600020905b81548152906001019060200180831161134f57829003601f168201915b505050505081565b6000600280549050905090565b600061138b6129b5565b611393612a25565b600061139d611837565b92508260e001515160018751011415156113b657600080fd5b60408051908101604052806000815260200160008152509150600090505b855181101561143457611425826114208560e00151600185018151811015156113f957fe5b90602001906020020151898581518110151561141157fe5b906020019060200201516120be565b61215a565b915080806001019150506113d4565b61145a828460e00151600081518110151561144b57fe5b9060200190602002015161215a565b9150611483856000015184600001516114768860200151612217565b61147e6122b2565b61237c565b151561149257600193506115af565b6114b9836020015186604001516114ac8860600151612217565b6114b46122b2565b61237c565b15156114c857600293506115af565b6114ef856080015184604001516114e28860a00151612217565b6114ea6122b2565b61237c565b15156114fe57600393506115af565b61154a8560c00151846060015161152e611529866115248b600001518c6080015161215a565b61215a565b612217565b8660a001516115408860800151612217565b8a60400151612487565b151561155957600493506115af565b61159b61156a83876000015161215a565b866040015161157c8860e00151612217565b8660c0015161158e8a60800151612217565b6115966122b2565b612487565b15156115aa57600593506115af565b600093505b50505092915050565b600080600060606000867001000000000000000000000000000000000293508570010000000000000000000000000000000002925060206040519080825280601f01601f1916602001820160405280156116215781602001602082028038833980820191505090505b509150600090505b601081101561172057838160108110151561164057fe5b1a7f010000000000000000000000000000000000000000000000000000000000000002828281518110151561167157fe5b9060200101907effffffffffffffffffffffffffffffffffffffffffffffffffffffffffffff1916908160001a90535082816010811015156116af57fe5b1a7f01000000000000000000000000000000000000000000000000000000000000000282826010018151811015156116e357fe5b9060200101907effffffffffffffffffffffffffffffffffffffffffffffffffffffffffffff1916908160001a9053508080600101915050611629565b61172b8260006125ce565b94505050505092915050565b6001806000846000191660001916815260200190815260200160002060006101000a81548160ff0219169083600281111561176e57fe5b021790555060028190806001815401808255809150509060018203906000526020600020016000909192909190915090805190602001906117b0929190612a3f565b505060038290806001815401808255809150509060018203906000526020600020016000909192909190915090600019169055507fc904a92388c152c0c63dfe30e3e880273673ef7d33ea18195aecb5ba50f546fc826001600280549050036040518083600019166000191681526020018281526020019250505060405180910390a15050565b61183f6129b5565b604080519081016040528060408051908101604052807f19c71235f6fa4f6e868ae36717f32b05ef9ab47e8ba8acecf46c78876c03e9d381526020017f104a52cf678f893a3f3f013d8edbb2b966c90bf5ebb4fbf17b3ef54e251d78a4815250815260200160408051908101604052807f2249e4ba346e344242421f0340eacd276d8cf3e411da62340def4da494510e1281526020017f24eeaa671bd2a3f7f9d4c4831677b6d8a8092b9824ea7bb86c3ec1ac519466c7815250815250816000018190525060408051908101604052807ebc24d82bedf38b5440013936ca9bce102e5e6950c48d9ad8d240a1918834da81526020017f1e08f26bafc121cf60cb38d6d885639acdfc7fa97dfcf59acd617760376dc1638152508160200181905250604080519081016040528060408051908101604052807f16d3d66d457b88845cab2bfcc80d119c4c990e418fd32c223d66acf5d730bd7981526020017f2621348fee105d160846de43f9085e6c97ef36d923c6b12bad59a06d4cd67790815250815260200160408051908101604052807f15d90f1ea3e43aca5f5eacaee4a750d50d47cc4314dfe83eb3d4d85de10c7df081526020017f1d5aa223d20e7e8949e7f1ba5608c3f955eb24694449a3558fe8c77344b52c7b8152508152508160400181905250604080519081016040528060408051908101604052807f1e6c47e84987f1d04a0f65c183db5129c85b3e61554f12db0247090ad921c1ff81526020017f05ba5ee3faa025f83e9063d6080fcfa45fab5436b553ed42969fc46cc2b49762815250815260200160408051908101604052807f2b91af821c43ad3a7d7a8fa57c1a93c8f319fe1fe3bcf842f8f2f2f3036fbdc681526020017f1a1a6e90aba36eb6f84afde36ce456add3ca719b559ebf6aa451c05e98de73ee815250815250816060018190525060408051908101604052807f2dcecf66dc477d9ba014e56dcafe4ec65a1bfbeef0ba36cf91485074925c3f1881526020017f218f2c7d973e1f318b5ade3e844dc982bebe5728754f983d80e8f077e17cb6538152508160800181905250604080519081016040528060408051908101604052807f2bd6eeaba12846c349033d0296107a1ad880024b95f175297ba67a0362681b4f81526020017f05369df0c21c90a21b89109769b897e256867e539296a9ae7e3a6ab01cb191d5815250815260200160408051908101604052807f172ac74542167a92da9c783c88cd7695225f734c22381d12b747d21ceaa3a79481526020017f21a01f99f1eeb11189d2a073dde9a26e3fc5b36e613bc35a850fb119fddf90718152508152508160a00181905250604080519081016040528060408051908101604052807f2f5d53f0461269e746c1a93e74a8f979e346d1820b49dfa06767b2352cc44c9181526020017f297ccd8a7217827f212327ac8531e8d0f40ce11ecc3639924b65549646827942815250815260200160408051908101604052807f049ffdfacbd89f84cd92977cdef352e2aa7f666d0652d4241dcf580a59ac070d81526020017f121edccc64c45532c20aff64325978b673a9a6c262965213246383f831539cea8152508152508160c001819052506008604051908082528060200260200182016040528015611d0c57816020015b611cf9612abf565b815260200190600190039081611cf15790505b508160e0018190525060408051908101604052807e3c264441f252dd4076c96b08e248b26af262865880c963862b25f54ff7d6bc81526020017f047772002487b153535656f30a6be1f0b8d77cb9cc675194a715466c77b128ab8152508160e001516000815181101515611d7c57fe5b9060200190602002018190525060408051908101604052807f0fac4dd2386fd19672251d43c089e166721a8e4a3647e5eb3cbf3ef5205184d181526020017e89acaaaa2c402ff5201e45423333224d7b6f09b68bf383da808276a4c3817c8152508160e001516001815181101515611df057fe5b9060200190602002018190525060408051908101604052807f1f3851ac41022d1cc8421a57b3aeb366fbf3a739cbc7765cd45951bb374c48b781526020017f22bbe3563e2215bcf80f4cf17cd43841a89ca4948ccde95b529b675889ceee8a8152508160e001516002815181101515611e6557fe5b9060200190602002018190525060408051908101604052807f26a3047286fdf3b2371c69fa22685237e2383464d366119978fa992beaace45881526020017f27c4821aac53416aa991b087767dc4c1b809a60df526a3050eeba8305874ecfa8152508160e001516003815181101515611eda57fe5b9060200190602002018190525060408051908101604052807f125d531481e237ef1c513ffa87c6683e7d48ba23dd09d0a1f404be93710faa0a81526020017f2ac3b9a239330ec8738d9b2f2443953a08b784b189f31633b4a5f36c8afecd318152508160e001516004815181101515611f4f57fe5b9060200190602002018190525060408051908101604052807f1a2bc18c294dddef4f5f6fea036a58961528c2ac13dcc50c859666f4246c161481526020017f07d57f3f659b73664a163c91d4ea9e6b5f3f73c589d962a4f40a16482689719b8152508160e001516005815181101515611fc457fe5b9060200190602002018190525060408051908101604052807f075d9a71677599f30708e79584ae1fde71a3b266203529c31e8f3288409ef89681526020017f17b0fd7694fe3a8518c435a2ab2489863c932cc7a74c3b57a93b71a4906686ed8152508160e00151600681518110151561203957fe5b9060200190602002018190525060408051908101604052807f2fa7869db5beed03a31eb094857da4eef91d6cbe391d6e45fbfa4d2ecddcac4981526020017f19f9dde6270b52b594c8cd5d646241f857f1cc069a05c18c694fa032dcec7dec8152508160e0015160078151811015156120ae57fe5b9060200190602002018190525090565b6120c6612a25565b6120ce612ad9565b600084600001518260006003811015156120e457fe5b602002018181525050846020015182600160038110151561210157fe5b6020020181815250508382600260038110151561211a57fe5b602002018181525050606083608084600060076107d05a03f19050806000811461214357612145565bfe5b5080151561215257600080fd5b505092915050565b612162612a25565b61216a612afc565b6000846000015182600060048110151561218057fe5b602002018181525050846020015182600160048110151561219d57fe5b60200201818152505083600001518260026004811015156121ba57fe5b60200201818152505083602001518260036004811015156121d757fe5b60200201818152505060608360c084600060066107d05a03f19050806000811461220057612202565bfe5b5080151561220f57600080fd5b505092915050565b61221f612a25565b60007f30644e72e131a029b85045b68181585d97816a916871ca8d3c208c16d87cfd4790506000836000015114801561225c575060008360200151145b1561227f57604080519081016040528060008152602001600081525091506122ac565b6040805190810160405280846000015181526020018285602001518115156122a357fe5b06830381525091505b50919050565b6122ba612b1f565b604080519081016040528060408051908101604052807f198e9393920d483a7260bfb731fb5d25f1aa493335a9e71297e485b7aef312c281526020017f1800deef121f1e76426a00665e5c4479674322d4f75edadd46debd5cd992f6ed815250815260200160408051908101604052807f090689d0585ff075ec9e99ad690c3395bc4b313370b38ef355acdadcd122975b81526020017f12c85ea5db8c6deb4aab71808dcb408fe3d1e7690c43d37b4ce6cc0166fa7daa815250815250905090565b600060608060026040519080825280602002602001820160405280156123bc57816020015b6123a9612abf565b8152602001906001900390816123a15790505b50915060026040519080825280602002602001820160405280156123fa57816020015b6123e7612b46565b8152602001906001900390816123df5790505b5090508682600081518110151561240d57fe5b906020019060200201819052508482600181518110151561242a57fe5b906020019060200201819052508581600081518110151561244757fe5b906020019060200201819052508381600181518110151561246457fe5b9060200190602002018190525061247b82826126ac565b92505050949350505050565b600060608060036040519080825280602002602001820160405280156124c757816020015b6124b4612abf565b8152602001906001900390816124ac5790505b509150600360405190808252806020026020018201604052801561250557816020015b6124f2612b46565b8152602001906001900390816124ea5790505b5090508882600081518110151561251857fe5b906020019060200201819052508682600181518110151561253557fe5b906020019060200201819052508482600281518110151561255257fe5b906020019060200201819052508781600081518110151561256f57fe5b906020019060200201819052508581600181518110151561258c57fe5b90602001906020020181905250838160028151811015156125a957fe5b906020019060200201819052506125c082826126ac565b925050509695505050505050565b60008060008090505b60208110156126a1576008810260ff7f0100000000000000000000000000000000000000000000000000000000000000028683870181518110151561261857fe5b9060200101517f010000000000000000000000000000000000000000000000000000000000000090047f010000000000000000000000000000000000000000000000000000000000000002167effffffffffffffffffffffffffffffffffffffffffffffffffffffffffffff1916600019169060020a90048217915080806001019150506125d7565b819250505092915050565b6000806000606060006126bd612b6d565b6000875189511415156126cf57600080fd5b88519550600686029450846040519080825280602002602001820160405280156127085781602001602082028038833980820191505090505b509350600092505b858310156128e557888381518110151561272657fe5b9060200190602002015160000151846000600686020181518110151561274857fe5b9060200190602002018181525050888381518110151561276457fe5b9060200190602002015160200151846001600686020181518110151561278657fe5b906020019060200201818152505087838151811015156127a257fe5b906020019060200201516000015160006002811015156127be57fe5b602002015184600260068602018151811015156127d757fe5b906020019060200201818152505087838151811015156127f357fe5b9060200190602002015160000151600160028110151561280f57fe5b6020020151846003600686020181518110151561282857fe5b9060200190602002018181525050878381518110151561284457fe5b9060200190602002015160200151600060028110151561286057fe5b6020020151846004600686020181518110151561287957fe5b9060200190602002018181525050878381518110151561289557fe5b906020019060200201516020015160016002811015156128b157fe5b602002015184600560068602018151811015156128ca57fe5b90602001906020020181815250508280600101935050612710565b6020826020870260208701600060086107d05a03f19050806000811461290a5761290c565bfe5b5080151561291957600080fd5b600082600060018110151561292a57fe5b60200201511415965050505050505092915050565b61024060405190810160405280612954612abf565b8152602001612961612abf565b815260200161296e612b46565b815260200161297b612abf565b8152602001612988612abf565b8152602001612995612abf565b81526020016129a2612abf565b81526020016129af612abf565b81525090565b610320604051908101604052806129ca612b46565b81526020016129d7612abf565b81526020016129e4612b46565b81526020016129f1612b46565b81526020016129fe612abf565b8152602001612a0b612b46565b8152602001612a18612b46565b8152602001606081525090565b604080519081016040528060008152602001600081525090565b828054600181600116156101000203166002900490600052602060002090601f016020900481019282601f10612a8057805160ff1916838001178555612aae565b82800160010185558215612aae579182015b82811115612aad578251825591602001919060010190612a92565b5b509050612abb9190612b90565b5090565b604080519081016040528060008152602001600081525090565b606060405190810160405280600390602082028038833980820191505090505090565b608060405190810160405280600490602082028038833980820191505090505090565b608060405190810160405280612b33612bb5565b8152602001612b40612bb5565b81525090565b608060405190810160405280612b5a612bb5565b8152602001612b67612bb5565b81525090565b602060405190810160405280600190602082028038833980820191505090505090565b612bb291905b80821115612bae576000816000905550600101612b96565b5090565b90565b60408051908101604052806002906020820280388339808201915050905050905600a165627a7a72305820504e133b4b507dc12fcc1769c61e1678a403fb1931fc805a8087373bae868cf90029",
  "source": "pragma solidity ^0.4.25;\n\nimport \"./ERC20Interface.sol\";\nimport \"./verifier.sol\";\n\ncontract SecretNote is Verifier {\n\n  ERC20 internal DAI_TOKEN_ADDRESS = ERC20(0xad6d458402f60fd3bd25163575031acdce07538d);\n\n  constructor() {}\n\n  enum State {Invalid, Created, Spent}\n  mapping(bytes32 => State) public notes; // mapping of hash of the note to state\n  string[] public allNotes;\n  bytes32[] public allHashedNotes;\n\n  function getNotesLength() public view returns(uint) {\n    return allNotes.length;\n  }\n\n  // function createNote(ERC20 srcToken, uint srcQty) public {\n  //   // Check that the token transferFrom has succeeded\n  //   require(srcToken.transferFrom(msg.sender, address(this), srcQty));\n\n  //   // swap srcToken tokens with dai\n  //   uint swappedAmount = kyberSwap(srcToken, srcQty);\n\n  //   // create secret note @todo nonce\n  //   bytes32 noteHash = sha256(bytes32(msg.sender), bytes32(swappedAmount));\n  //   notes[noteHash] = State.Created;\n  //   allNotes.push(noteHash);\n  //   emit NoteCreated(noteHash);\n  // }\n\n  // function kyberSwap(ERC20 srcToken, uint srcQty) internal returns(uint) {\n  //   // Get the minimum conversion rate\n  //   uint minConversionRate;\n  //   (minConversionRate,) = kyberProxy.getExpectedRate(srcToken, DAI_TOKEN_ADDRESS, srcQty);\n\n  //   kyberProxy.trade(\n  //     srcToken,\n  //     srcQty,\n  //     DAI_TOKEN_ADDRESS, // dest,\n  //     address(this), // destAddress address to send tokens to\n  //     1000000000, // maxDestAmount??\n  //     minConversionRate, // check\n  //     0\n  //   );\n\n  //   return srcQty * minConversionRate;\n  // }\n\n  event debug(bytes32 m, bytes32 m2);\n  function createNoteDummy(address owner, uint amount, string encryptedNote) public {\n    bytes32 note = sha256(bytes32(owner), bytes32(amount));\n    createNote(note, encryptedNote);\n    emit debug(bytes32(msg.sender), bytes32(amount));\n  }\n\n  function claimNote(uint amount) public {\n    bytes32 note = sha256(bytes32(msg.sender), bytes32(amount));\n    require(\n      notes[note] == State.Created,\n      'note doesnt exist'\n    );\n    notes[note] = State.Spent;\n    require(\n      DAI_TOKEN_ADDRESS.transferFrom(address(this), msg.sender, amount * (10 ** 18)),\n      'daiToken transfer failed'\n    );\n    emit Claim(address(this), msg.sender, amount);\n  }\n  event Claim(address from, address to, uint amount);\n\n  function transferNote(\n    uint[2] a,\n    uint[2] a_p,\n    uint[2][2] b,\n    uint[2] b_p,\n    uint[2] c,\n    uint[2] c_p,\n    uint[2] h,\n    uint[2] k,\n    uint[7] input,\n    string encryptedNote1,\n    string encryptedNote2\n  ) {\n    require(\n      verifyTx(a, a_p, b, b_p, c, c_p, h, k, input),\n      'Invalid zk proof'\n    );\n\n    bytes32 spendingNote = calcNoteHash(input[0], input[1]);\n    // emit debug(spendingNote, bytes32(0));\n    require(\n      notes[spendingNote] == State.Created,\n      'spendingNote doesnt exist'\n    );\n\n    notes[spendingNote] = State.Spent;\n    bytes32 newNote1 = calcNoteHash(input[2], input[3]);\n    createNote(newNote1, encryptedNote1);\n    bytes32 newNote2 = calcNoteHash(input[4], input[5]);\n    createNote(newNote2, encryptedNote2);\n  }\n\n  event NoteCreated(bytes32 noteId, uint index);\n  function createNote(bytes32 note, string encryptedNote) internal {\n    notes[note] = State.Created;\n    allNotes.push(encryptedNote);\n    allHashedNotes.push(note);\n    emit NoteCreated(note, allNotes.length - 1);\n  }\n\n  event d2(bytes16 a, bytes16 b);\n  function calcNoteHash(uint _a, uint _b) internal returns(bytes32 note) {\n    bytes16 a = bytes16(_a);\n    bytes16 b = bytes16(_b);\n    // emit d2(a, b);\n    bytes memory _note = new bytes(32);\n    \n    for (uint i = 0; i < 16; i++) {\n      _note[i] = a[i];\n      _note[16 + i] = b[i];\n    }\n    note = bytesToBytes32(_note, 0);\n  }\n\n  function bytesToBytes32(bytes b, uint offset) internal pure returns (bytes32) {\n    bytes32 out;\n    for (uint i = 0; i < 32; i++) {\n      out |= bytes32(b[offset + i] & 0xFF) >> (i * 8);\n    }\n    return out;\n  }\n}",
  "sourcePath": "/Users/arpit/projects/ethsingapore-zk-dai/ethereum/contracts/SecretNote.sol",
  "compiler": {
    "name": "solc",
    "version": "0.4.25+commit.59dbf8f1.Emscripten.clang"
  },
  "schemaVersion": "3.0.0-beta.1",
  "updatedAt": "2018-12-09T00:39:28.194Z"
}